{
  "address": "0x5e770165eC9F7D5016CE5C9ebE2FDC4a1aD6b4A7",
  "abi": [
    {
      "inputs": [
        {
          "internalType": "uint256",
          "name": "_collection_size",
          "type": "uint256"
        },
        {
          "internalType": "string",
          "name": "_baseURI",
          "type": "string"
        }
      ],
      "stateMutability": "nonpayable",
      "type": "constructor"
    },
    {
      "inputs": [],
      "name": "ApprovalCallerNotOwnerNorApproved",
      "type": "error"
    },
    {
      "inputs": [],
      "name": "ApprovalQueryForNonexistentToken",
      "type": "error"
    },
    {
      "inputs": [],
      "name": "BalanceQueryForZeroAddress",
      "type": "error"
    },
    {
      "inputs": [],
      "name": "MintERC2309QuantityExceedsLimit",
      "type": "error"
    },
    {
      "inputs": [],
      "name": "MintToZeroAddress",
      "type": "error"
    },
    {
      "inputs": [],
      "name": "MintZeroQuantity",
      "type": "error"
    },
    {
      "inputs": [],
      "name": "NFT__ExceededSupply",
      "type": "error"
    },
    {
      "inputs": [],
      "name": "NFT__NonExistentToken",
      "type": "error"
    },
    {
      "inputs": [],
      "name": "OwnerQueryForNonexistentToken",
      "type": "error"
    },
    {
      "inputs": [],
      "name": "OwnershipNotInitializedForExtraData",
      "type": "error"
    },
    {
      "inputs": [],
      "name": "TransferCallerNotOwnerNorApproved",
      "type": "error"
    },
    {
      "inputs": [],
      "name": "TransferFromIncorrectOwner",
      "type": "error"
    },
    {
      "inputs": [],
      "name": "TransferToNonERC721ReceiverImplementer",
      "type": "error"
    },
    {
      "inputs": [],
      "name": "TransferToZeroAddress",
      "type": "error"
    },
    {
      "inputs": [],
      "name": "URIQueryForNonexistentToken",
      "type": "error"
    },
    {
      "anonymous": false,
      "inputs": [
        {
          "indexed": true,
          "internalType": "address",
          "name": "owner",
          "type": "address"
        },
        {
          "indexed": true,
          "internalType": "address",
          "name": "approved",
          "type": "address"
        },
        {
          "indexed": true,
          "internalType": "uint256",
          "name": "tokenId",
          "type": "uint256"
        }
      ],
      "name": "Approval",
      "type": "event"
    },
    {
      "anonymous": false,
      "inputs": [
        {
          "indexed": true,
          "internalType": "address",
          "name": "owner",
          "type": "address"
        },
        {
          "indexed": true,
          "internalType": "address",
          "name": "operator",
          "type": "address"
        },
        {
          "indexed": false,
          "internalType": "bool",
          "name": "approved",
          "type": "bool"
        }
      ],
      "name": "ApprovalForAll",
      "type": "event"
    },
    {
      "anonymous": false,
      "inputs": [
        {
          "indexed": true,
          "internalType": "uint256",
          "name": "fromTokenId",
          "type": "uint256"
        },
        {
          "indexed": false,
          "internalType": "uint256",
          "name": "toTokenId",
          "type": "uint256"
        },
        {
          "indexed": true,
          "internalType": "address",
          "name": "from",
          "type": "address"
        },
        {
          "indexed": true,
          "internalType": "address",
          "name": "to",
          "type": "address"
        }
      ],
      "name": "ConsecutiveTransfer",
      "type": "event"
    },
    {
      "anonymous": false,
      "inputs": [
        {
          "indexed": true,
          "internalType": "address",
          "name": "previousOwner",
          "type": "address"
        },
        {
          "indexed": true,
          "internalType": "address",
          "name": "newOwner",
          "type": "address"
        }
      ],
      "name": "OwnershipTransferred",
      "type": "event"
    },
    {
      "anonymous": false,
      "inputs": [
        {
          "indexed": true,
          "internalType": "address",
          "name": "from",
          "type": "address"
        },
        {
          "indexed": true,
          "internalType": "address",
          "name": "to",
          "type": "address"
        },
        {
          "indexed": true,
          "internalType": "uint256",
          "name": "tokenId",
          "type": "uint256"
        }
      ],
      "name": "Transfer",
      "type": "event"
    },
    {
      "inputs": [
        {
          "internalType": "address",
          "name": "to",
          "type": "address"
        },
        {
          "internalType": "uint256",
          "name": "tokenId",
          "type": "uint256"
        }
      ],
      "name": "approve",
      "outputs": [],
      "stateMutability": "payable",
      "type": "function"
    },
    {
      "inputs": [
        {
          "internalType": "address",
          "name": "owner",
          "type": "address"
        }
      ],
      "name": "balanceOf",
      "outputs": [
        {
          "internalType": "uint256",
          "name": "",
          "type": "uint256"
        }
      ],
      "stateMutability": "view",
      "type": "function"
    },
    {
      "inputs": [
        {
          "internalType": "uint256",
          "name": "tokenId",
          "type": "uint256"
        }
      ],
      "name": "getApproved",
      "outputs": [
        {
          "internalType": "address",
          "name": "",
          "type": "address"
        }
      ],
      "stateMutability": "view",
      "type": "function"
    },
    {
      "inputs": [],
      "name": "getBaseURI",
      "outputs": [
        {
          "internalType": "string",
          "name": "",
          "type": "string"
        }
      ],
      "stateMutability": "view",
      "type": "function"
    },
    {
      "inputs": [],
      "name": "getCollectionSize",
      "outputs": [
        {
          "internalType": "uint256",
          "name": "",
          "type": "uint256"
        }
      ],
      "stateMutability": "view",
      "type": "function"
    },
    {
      "inputs": [
        {
          "internalType": "address",
          "name": "owner",
          "type": "address"
        },
        {
          "internalType": "address",
          "name": "operator",
          "type": "address"
        }
      ],
      "name": "isApprovedForAll",
      "outputs": [
        {
          "internalType": "bool",
          "name": "",
          "type": "bool"
        }
      ],
      "stateMutability": "view",
      "type": "function"
    },
    {
      "inputs": [
        {
          "internalType": "uint256",
          "name": "quantity",
          "type": "uint256"
        }
      ],
      "name": "mint",
      "outputs": [],
      "stateMutability": "payable",
      "type": "function"
    },
    {
      "inputs": [],
      "name": "name",
      "outputs": [
        {
          "internalType": "string",
          "name": "",
          "type": "string"
        }
      ],
      "stateMutability": "view",
      "type": "function"
    },
    {
      "inputs": [],
      "name": "owner",
      "outputs": [
        {
          "internalType": "address",
          "name": "",
          "type": "address"
        }
      ],
      "stateMutability": "view",
      "type": "function"
    },
    {
      "inputs": [
        {
          "internalType": "uint256",
          "name": "tokenId",
          "type": "uint256"
        }
      ],
      "name": "ownerOf",
      "outputs": [
        {
          "internalType": "address",
          "name": "",
          "type": "address"
        }
      ],
      "stateMutability": "view",
      "type": "function"
    },
    {
      "inputs": [],
      "name": "renounceOwnership",
      "outputs": [],
      "stateMutability": "nonpayable",
      "type": "function"
    },
    {
      "inputs": [
        {
          "internalType": "address",
          "name": "from",
          "type": "address"
        },
        {
          "internalType": "address",
          "name": "to",
          "type": "address"
        },
        {
          "internalType": "uint256",
          "name": "tokenId",
          "type": "uint256"
        }
      ],
      "name": "safeTransferFrom",
      "outputs": [],
      "stateMutability": "payable",
      "type": "function"
    },
    {
      "inputs": [
        {
          "internalType": "address",
          "name": "from",
          "type": "address"
        },
        {
          "internalType": "address",
          "name": "to",
          "type": "address"
        },
        {
          "internalType": "uint256",
          "name": "tokenId",
          "type": "uint256"
        },
        {
          "internalType": "bytes",
          "name": "_data",
          "type": "bytes"
        }
      ],
      "name": "safeTransferFrom",
      "outputs": [],
      "stateMutability": "payable",
      "type": "function"
    },
    {
      "inputs": [
        {
          "internalType": "address",
          "name": "operator",
          "type": "address"
        },
        {
          "internalType": "bool",
          "name": "approved",
          "type": "bool"
        }
      ],
      "name": "setApprovalForAll",
      "outputs": [],
      "stateMutability": "nonpayable",
      "type": "function"
    },
    {
      "inputs": [
        {
          "internalType": "bytes4",
          "name": "interfaceId",
          "type": "bytes4"
        }
      ],
      "name": "supportsInterface",
      "outputs": [
        {
          "internalType": "bool",
          "name": "",
          "type": "bool"
        }
      ],
      "stateMutability": "view",
      "type": "function"
    },
    {
      "inputs": [],
      "name": "symbol",
      "outputs": [
        {
          "internalType": "string",
          "name": "",
          "type": "string"
        }
      ],
      "stateMutability": "view",
      "type": "function"
    },
    {
      "inputs": [
        {
          "internalType": "uint256",
          "name": "_tokenId",
          "type": "uint256"
        }
      ],
      "name": "tokenURI",
      "outputs": [
        {
          "internalType": "string",
          "name": "",
          "type": "string"
        }
      ],
      "stateMutability": "view",
      "type": "function"
    },
    {
      "inputs": [],
      "name": "totalSupply",
      "outputs": [
        {
          "internalType": "uint256",
          "name": "",
          "type": "uint256"
        }
      ],
      "stateMutability": "view",
      "type": "function"
    },
    {
      "inputs": [
        {
          "internalType": "address",
          "name": "from",
          "type": "address"
        },
        {
          "internalType": "address",
          "name": "to",
          "type": "address"
        },
        {
          "internalType": "uint256",
          "name": "tokenId",
          "type": "uint256"
        }
      ],
      "name": "transferFrom",
      "outputs": [],
      "stateMutability": "payable",
      "type": "function"
    },
    {
      "inputs": [
        {
          "internalType": "address",
          "name": "newOwner",
          "type": "address"
        }
      ],
      "name": "transferOwnership",
      "outputs": [],
      "stateMutability": "nonpayable",
      "type": "function"
    }
  ],
  "transactionHash": "0x71eec33a90124af2294205801b1739bec0c411570e04061572d28d83285d2122",
  "args": [
    100,
    "ipfs://bafybeicwjrjtms4mrcqtvba5d2dqpe3vkul7fk73utbq44mjplwlvndkqm/"
  ],
  "numDeployments": 3,
  "solcInputHash": "f6afa55885c6c552ab30d86cef4c42cc",
  "bytecode": "0x60a06040523480156200001157600080fd5b5060405162002b0a38038062002b0a8339818101604052810190620000379190620003c2565b6040518060400160405280600f81526020017f436f6c6c656374696f6e204e616d6500000000000000000000000000000000008152506040518060400160405280600681526020017f53796d626f6c00000000000000000000000000000000000000000000000000008152508160029081620000b4919062000669565b508060039081620000c6919062000669565b50620000d76200012160201b60201c565b6000819055505050620000ff620000f36200012660201b60201c565b6200012e60201b60201c565b8160808181525050806009908162000118919062000669565b50505062000750565b600090565b600033905090565b6000600860009054906101000a900473ffffffffffffffffffffffffffffffffffffffff16905081600860006101000a81548173ffffffffffffffffffffffffffffffffffffffff021916908373ffffffffffffffffffffffffffffffffffffffff1602179055508173ffffffffffffffffffffffffffffffffffffffff168173ffffffffffffffffffffffffffffffffffffffff167f8be0079c531659141344cd1fd0a4f28419497f9722a3daafe3b4186f6b6457e060405160405180910390a35050565b6000604051905090565b600080fd5b600080fd5b6000819050919050565b6200021d8162000208565b81146200022957600080fd5b50565b6000815190506200023d8162000212565b92915050565b600080fd5b600080fd5b6000601f19601f8301169050919050565b7f4e487b7100000000000000000000000000000000000000000000000000000000600052604160045260246000fd5b62000298826200024d565b810181811067ffffffffffffffff82111715620002ba57620002b96200025e565b5b80604052505050565b6000620002cf620001f4565b9050620002dd82826200028d565b919050565b600067ffffffffffffffff8211156200030057620002ff6200025e565b5b6200030b826200024d565b9050602081019050919050565b60005b83811015620003385780820151818401526020810190506200031b565b60008484015250505050565b60006200035b6200035584620002e2565b620002c3565b9050828152602081018484840111156200037a576200037962000248565b5b6200038784828562000318565b509392505050565b600082601f830112620003a757620003a662000243565b5b8151620003b984826020860162000344565b91505092915050565b60008060408385031215620003dc57620003db620001fe565b5b6000620003ec858286016200022c565b925050602083015167ffffffffffffffff81111562000410576200040f62000203565b5b6200041e858286016200038f565b9150509250929050565b600081519050919050565b7f4e487b7100000000000000000000000000000000000000000000000000000000600052602260045260246000fd5b600060028204905060018216806200047b57607f821691505b60208210810362000491576200049062000433565b5b50919050565b60008190508160005260206000209050919050565b60006020601f8301049050919050565b600082821b905092915050565b600060088302620004fb7fffffffffffffffffffffffffffffffffffffffffffffffffffffffffffffffff82620004bc565b620005078683620004bc565b95508019841693508086168417925050509392505050565b6000819050919050565b60006200054a620005446200053e8462000208565b6200051f565b62000208565b9050919050565b6000819050919050565b620005668362000529565b6200057e620005758262000551565b848454620004c9565b825550505050565b600090565b6200059562000586565b620005a28184846200055b565b505050565b5b81811015620005ca57620005be6000826200058b565b600181019050620005a8565b5050565b601f8211156200061957620005e38162000497565b620005ee84620004ac565b81016020851015620005fe578190505b620006166200060d85620004ac565b830182620005a7565b50505b505050565b600082821c905092915050565b60006200063e600019846008026200061e565b1980831691505092915050565b60006200065983836200062b565b9150826002028217905092915050565b620006748262000428565b67ffffffffffffffff81111562000690576200068f6200025e565b5b6200069c825462000462565b620006a9828285620005ce565b600060209050601f831160018114620006e15760008415620006cc578287015190505b620006d885826200064b565b86555062000748565b601f198416620006f18662000497565b60005b828110156200071b57848901518255600182019150602085019450602081019050620006f4565b868310156200073b578489015162000737601f8916826200062b565b8355505b6001600288020188555050505b505050505050565b6080516123976200077360003960008181610c3d0152610d2701526123976000f3fe60806040526004361061011f5760003560e01c8063715018a6116100a0578063a22cb46511610064578063a22cb465146103a1578063b88d4fde146103ca578063c87b56dd146103e6578063e985e9c514610423578063f2fde38b146104605761011f565b8063715018a6146102ed5780637155c1ea146103045780638da5cb5b1461032f57806395d89b411461035a578063a0712d68146103855761011f565b806323b872dd116100e757806323b872dd1461021057806342842e0e1461022c5780636352211e1461024857806370a0823114610285578063714c5398146102c25761011f565b806301ffc9a71461012457806306fdde0314610161578063081812fc1461018c578063095ea7b3146101c957806318160ddd146101e5575b600080fd5b34801561013057600080fd5b5061014b600480360381019061014691906118e4565b610489565b604051610158919061192c565b60405180910390f35b34801561016d57600080fd5b5061017661051b565b60405161018391906119d7565b60405180910390f35b34801561019857600080fd5b506101b360048036038101906101ae9190611a2f565b6105ad565b6040516101c09190611a9d565b60405180910390f35b6101e360048036038101906101de9190611ae4565b61062c565b005b3480156101f157600080fd5b506101fa610770565b6040516102079190611b33565b60405180910390f35b61022a60048036038101906102259190611b4e565b610787565b005b61024660048036038101906102419190611b4e565b610aa9565b005b34801561025457600080fd5b5061026f600480360381019061026a9190611a2f565b610ac9565b60405161027c9190611a9d565b60405180910390f35b34801561029157600080fd5b506102ac60048036038101906102a79190611ba1565b610adb565b6040516102b99190611b33565b60405180910390f35b3480156102ce57600080fd5b506102d7610b93565b6040516102e491906119d7565b60405180910390f35b3480156102f957600080fd5b50610302610c25565b005b34801561031057600080fd5b50610319610c39565b6040516103269190611b33565b60405180910390f35b34801561033b57600080fd5b50610344610c61565b6040516103519190611a9d565b60405180910390f35b34801561036657600080fd5b5061036f610c8b565b60405161037c91906119d7565b60405180910390f35b61039f600480360381019061039a9190611a2f565b610d1d565b005b3480156103ad57600080fd5b506103c860048036038101906103c39190611bfa565b610d9e565b005b6103e460048036038101906103df9190611d6f565b610ea9565b005b3480156103f257600080fd5b5061040d60048036038101906104089190611a2f565b610f1c565b60405161041a91906119d7565b60405180910390f35b34801561042f57600080fd5b5061044a60048036038101906104459190611df2565b610f8f565b604051610457919061192c565b60405180910390f35b34801561046c57600080fd5b5061048760048036038101906104829190611ba1565b611023565b005b60006301ffc9a760e01b827bffffffffffffffffffffffffffffffffffffffffffffffffffffffff191614806104e457506380ac58cd60e01b827bffffffffffffffffffffffffffffffffffffffffffffffffffffffff1916145b806105145750635b5e139f60e01b827bffffffffffffffffffffffffffffffffffffffffffffffffffffffff1916145b9050919050565b60606002805461052a90611e61565b80601f016020809104026020016040519081016040528092919081815260200182805461055690611e61565b80156105a35780601f10610578576101008083540402835291602001916105a3565b820191906000526020600020905b81548152906001019060200180831161058657829003601f168201915b5050505050905090565b60006105b8826110a6565b6105ee576040517fcf4700e400000000000000000000000000000000000000000000000000000000815260040160405180910390fd5b6006600083815260200190815260200160002060000160009054906101000a900473ffffffffffffffffffffffffffffffffffffffff169050919050565b600061063782610ac9565b90508073ffffffffffffffffffffffffffffffffffffffff16610658611105565b73ffffffffffffffffffffffffffffffffffffffff16146106bb576106848161067f611105565b610f8f565b6106ba576040517fcfb3b94200000000000000000000000000000000000000000000000000000000815260040160405180910390fd5b5b826006600084815260200190815260200160002060000160006101000a81548173ffffffffffffffffffffffffffffffffffffffff021916908373ffffffffffffffffffffffffffffffffffffffff160217905550818373ffffffffffffffffffffffffffffffffffffffff168273ffffffffffffffffffffffffffffffffffffffff167f8c5be1e5ebec7d5bd14f71427d1e84f3dd0314c0f7b2291e5b200ac8c7c3b92560405160405180910390a4505050565b600061077a61110d565b6001546000540303905090565b600061079282611112565b90508373ffffffffffffffffffffffffffffffffffffffff168173ffffffffffffffffffffffffffffffffffffffff16146107f9576040517fa114810000000000000000000000000000000000000000000000000000000000815260040160405180910390fd5b600080610805846111de565b9150915061081b8187610816611105565b611205565b610867576108308661082b611105565b610f8f565b610866576040517f59c896be00000000000000000000000000000000000000000000000000000000815260040160405180910390fd5b5b600073ffffffffffffffffffffffffffffffffffffffff168573ffffffffffffffffffffffffffffffffffffffff16036108cd576040517fea553b3400000000000000000000000000000000000000000000000000000000815260040160405180910390fd5b6108da8686866001611249565b80156108e557600082555b600560008773ffffffffffffffffffffffffffffffffffffffff1673ffffffffffffffffffffffffffffffffffffffff168152602001908152602001600020600081546001900391905081905550600560008673ffffffffffffffffffffffffffffffffffffffff1673ffffffffffffffffffffffffffffffffffffffff16815260200190815260200160002060008154600101919050819055506109b38561098f88888761124f565b7c020000000000000000000000000000000000000000000000000000000017611277565b600460008681526020019081526020016000208190555060007c0200000000000000000000000000000000000000000000000000000000841603610a395760006001850190506000600460008381526020019081526020016000205403610a37576000548114610a36578360046000838152602001908152602001600020819055505b5b505b838573ffffffffffffffffffffffffffffffffffffffff168773ffffffffffffffffffffffffffffffffffffffff167fddf252ad1be2c89b69c2b068fc378daa952ba7f163c4a11628f55a4df523b3ef60405160405180910390a4610aa186868660016112a2565b505050505050565b610ac483838360405180602001604052806000815250610ea9565b505050565b6000610ad482611112565b9050919050565b60008073ffffffffffffffffffffffffffffffffffffffff168273ffffffffffffffffffffffffffffffffffffffff1603610b42576040517f8f4eb60400000000000000000000000000000000000000000000000000000000815260040160405180910390fd5b67ffffffffffffffff600560008473ffffffffffffffffffffffffffffffffffffffff1673ffffffffffffffffffffffffffffffffffffffff16815260200190815260200160002054169050919050565b606060098054610ba290611e61565b80601f0160208091040260200160405190810160405280929190818152602001828054610bce90611e61565b8015610c1b5780601f10610bf057610100808354040283529160200191610c1b565b820191906000526020600020905b815481529060010190602001808311610bfe57829003601f168201915b5050505050905090565b610c2d6112a8565b610c376000611326565b565b60007f0000000000000000000000000000000000000000000000000000000000000000905090565b6000600860009054906101000a900473ffffffffffffffffffffffffffffffffffffffff16905090565b606060038054610c9a90611e61565b80601f0160208091040260200160405190810160405280929190818152602001828054610cc690611e61565b8015610d135780601f10610ce857610100808354040283529160200191610d13565b820191906000526020600020905b815481529060010190602001808311610cf657829003601f168201915b5050505050905090565b610d256112a8565b7f000000000000000000000000000000000000000000000000000000000000000081610d4f610770565b610d599190611ec1565b1115610d91576040517f6481299e00000000000000000000000000000000000000000000000000000000815260040160405180910390fd5b610d9b33826113ec565b50565b8060076000610dab611105565b73ffffffffffffffffffffffffffffffffffffffff1673ffffffffffffffffffffffffffffffffffffffff16815260200190815260200160002060008473ffffffffffffffffffffffffffffffffffffffff1673ffffffffffffffffffffffffffffffffffffffff16815260200190815260200160002060006101000a81548160ff0219169083151502179055508173ffffffffffffffffffffffffffffffffffffffff16610e58611105565b73ffffffffffffffffffffffffffffffffffffffff167f17307eab39ab6107e8899845ad3d59bd9653f200f220920489ca2b5937696c3183604051610e9d919061192c565b60405180910390a35050565b610eb4848484610787565b60008373ffffffffffffffffffffffffffffffffffffffff163b14610f1657610edf848484846115a7565b610f15576040517fd1a57ed600000000000000000000000000000000000000000000000000000000815260040160405180910390fd5b5b50505050565b6060610f27826110a6565b610f5d576040517fb2ad8e6600000000000000000000000000000000000000000000000000000000815260040160405180910390fd5b6009610f68836116f7565b604051602001610f79929190612015565b6040516020818303038152906040529050919050565b6000600760008473ffffffffffffffffffffffffffffffffffffffff1673ffffffffffffffffffffffffffffffffffffffff16815260200190815260200160002060008373ffffffffffffffffffffffffffffffffffffffff1673ffffffffffffffffffffffffffffffffffffffff16815260200190815260200160002060009054906101000a900460ff16905092915050565b61102b6112a8565b600073ffffffffffffffffffffffffffffffffffffffff168173ffffffffffffffffffffffffffffffffffffffff160361109a576040517f08c379a0000000000000000000000000000000000000000000000000000000008152600401611091906120b6565b60405180910390fd5b6110a381611326565b50565b6000816110b161110d565b111580156110c0575060005482105b80156110fe575060007c0100000000000000000000000000000000000000000000000000000000600460008581526020019081526020016000205416145b9050919050565b600033905090565b600090565b6000808290508061112161110d565b116111a7576000548110156111a65760006004600083815260200190815260200160002054905060007c01000000000000000000000000000000000000000000000000000000008216036111a4575b6000810361119a576004600083600190039350838152602001908152602001600020549050611170565b80925050506111d9565b505b5b6040517fdf2d9b4200000000000000000000000000000000000000000000000000000000815260040160405180910390fd5b919050565b60008060006006600085815260200190815260200160002090508092508254915050915091565b600073ffffffffffffffffffffffffffffffffffffffff8316925073ffffffffffffffffffffffffffffffffffffffff821691508382148383141790509392505050565b50505050565b60008060e883901c905060e8611266868684611857565b62ffffff16901b9150509392505050565b600073ffffffffffffffffffffffffffffffffffffffff83169250814260a01b178317905092915050565b50505050565b6112b0611860565b73ffffffffffffffffffffffffffffffffffffffff166112ce610c61565b73ffffffffffffffffffffffffffffffffffffffff1614611324576040517f08c379a000000000000000000000000000000000000000000000000000000000815260040161131b90612122565b60405180910390fd5b565b6000600860009054906101000a900473ffffffffffffffffffffffffffffffffffffffff16905081600860006101000a81548173ffffffffffffffffffffffffffffffffffffffff021916908373ffffffffffffffffffffffffffffffffffffffff1602179055508173ffffffffffffffffffffffffffffffffffffffff168173ffffffffffffffffffffffffffffffffffffffff167f8be0079c531659141344cd1fd0a4f28419497f9722a3daafe3b4186f6b6457e060405160405180910390a35050565b6000805490506000820361142c576040517fb562e8dd00000000000000000000000000000000000000000000000000000000815260040160405180910390fd5b6114396000848385611249565b600160406001901b178202600560008573ffffffffffffffffffffffffffffffffffffffff1673ffffffffffffffffffffffffffffffffffffffff168152602001908152602001600020600082825401925050819055506114b0836114a1600086600061124f565b6114aa85611868565b17611277565b6004600083815260200190815260200160002081905550600080838301905073ffffffffffffffffffffffffffffffffffffffff85169150828260007fddf252ad1be2c89b69c2b068fc378daa952ba7f163c4a11628f55a4df523b3ef600080a4600183015b81811461155157808360007fddf252ad1be2c89b69c2b068fc378daa952ba7f163c4a11628f55a4df523b3ef600080a4600181019050611516565b506000820361158c576040517f2e07630000000000000000000000000000000000000000000000000000000000815260040160405180910390fd5b8060008190555050506115a260008483856112a2565b505050565b60008373ffffffffffffffffffffffffffffffffffffffff1663150b7a026115cd611105565b8786866040518563ffffffff1660e01b81526004016115ef9493929190612197565b6020604051808303816000875af192505050801561162b57506040513d601f19601f8201168201806040525081019061162891906121f8565b60015b6116a4573d806000811461165b576040519150601f19603f3d011682016040523d82523d6000602084013e611660565b606091505b50600081510361169c576040517fd1a57ed600000000000000000000000000000000000000000000000000000000815260040160405180910390fd5b805181602001fd5b63150b7a0260e01b7bffffffffffffffffffffffffffffffffffffffffffffffffffffffff1916817bffffffffffffffffffffffffffffffffffffffffffffffffffffffff191614915050949350505050565b60606000820361173e576040518060400160405280600181526020017f30000000000000000000000000000000000000000000000000000000000000008152509050611852565b600082905060005b6000821461177057808061175990612225565b915050600a82611769919061229c565b9150611746565b60008167ffffffffffffffff81111561178c5761178b611c44565b5b6040519080825280601f01601f1916602001820160405280156117be5781602001600182028036833780820191505090505b5090505b6000851461184b576001826117d791906122cd565b9150600a856117e69190612301565b60306117f29190611ec1565b60f81b81838151811061180857611807612332565b5b60200101907effffffffffffffffffffffffffffffffffffffffffffffffffffffffffffff1916908160001a905350600a85611844919061229c565b94506117c2565b8093505050505b919050565b60009392505050565b600033905090565b60006001821460e11b9050919050565b6000604051905090565b600080fd5b600080fd5b60007fffffffff0000000000000000000000000000000000000000000000000000000082169050919050565b6118c18161188c565b81146118cc57600080fd5b50565b6000813590506118de816118b8565b92915050565b6000602082840312156118fa576118f9611882565b5b6000611908848285016118cf565b91505092915050565b60008115159050919050565b61192681611911565b82525050565b6000602082019050611941600083018461191d565b92915050565b600081519050919050565b600082825260208201905092915050565b60005b83811015611981578082015181840152602081019050611966565b60008484015250505050565b6000601f19601f8301169050919050565b60006119a982611947565b6119b38185611952565b93506119c3818560208601611963565b6119cc8161198d565b840191505092915050565b600060208201905081810360008301526119f1818461199e565b905092915050565b6000819050919050565b611a0c816119f9565b8114611a1757600080fd5b50565b600081359050611a2981611a03565b92915050565b600060208284031215611a4557611a44611882565b5b6000611a5384828501611a1a565b91505092915050565b600073ffffffffffffffffffffffffffffffffffffffff82169050919050565b6000611a8782611a5c565b9050919050565b611a9781611a7c565b82525050565b6000602082019050611ab26000830184611a8e565b92915050565b611ac181611a7c565b8114611acc57600080fd5b50565b600081359050611ade81611ab8565b92915050565b60008060408385031215611afb57611afa611882565b5b6000611b0985828601611acf565b9250506020611b1a85828601611a1a565b9150509250929050565b611b2d816119f9565b82525050565b6000602082019050611b486000830184611b24565b92915050565b600080600060608486031215611b6757611b66611882565b5b6000611b7586828701611acf565b9350506020611b8686828701611acf565b9250506040611b9786828701611a1a565b9150509250925092565b600060208284031215611bb757611bb6611882565b5b6000611bc584828501611acf565b91505092915050565b611bd781611911565b8114611be257600080fd5b50565b600081359050611bf481611bce565b92915050565b60008060408385031215611c1157611c10611882565b5b6000611c1f85828601611acf565b9250506020611c3085828601611be5565b9150509250929050565b600080fd5b600080fd5b7f4e487b7100000000000000000000000000000000000000000000000000000000600052604160045260246000fd5b611c7c8261198d565b810181811067ffffffffffffffff82111715611c9b57611c9a611c44565b5b80604052505050565b6000611cae611878565b9050611cba8282611c73565b919050565b600067ffffffffffffffff821115611cda57611cd9611c44565b5b611ce38261198d565b9050602081019050919050565b82818337600083830152505050565b6000611d12611d0d84611cbf565b611ca4565b905082815260208101848484011115611d2e57611d2d611c3f565b5b611d39848285611cf0565b509392505050565b600082601f830112611d5657611d55611c3a565b5b8135611d66848260208601611cff565b91505092915050565b60008060008060808587031215611d8957611d88611882565b5b6000611d9787828801611acf565b9450506020611da887828801611acf565b9350506040611db987828801611a1a565b925050606085013567ffffffffffffffff811115611dda57611dd9611887565b5b611de687828801611d41565b91505092959194509250565b60008060408385031215611e0957611e08611882565b5b6000611e1785828601611acf565b9250506020611e2885828601611acf565b9150509250929050565b7f4e487b7100000000000000000000000000000000000000000000000000000000600052602260045260246000fd5b60006002820490506001821680611e7957607f821691505b602082108103611e8c57611e8b611e32565b5b50919050565b7f4e487b7100000000000000000000000000000000000000000000000000000000600052601160045260246000fd5b6000611ecc826119f9565b9150611ed7836119f9565b9250828201905080821115611eef57611eee611e92565b5b92915050565b600081905092915050565b60008190508160005260206000209050919050565b60008154611f2281611e61565b611f2c8186611ef5565b94506001821660008114611f475760018114611f5c57611f8f565b60ff1983168652811515820286019350611f8f565b611f6585611f00565b60005b83811015611f8757815481890152600182019150602081019050611f68565b838801955050505b50505092915050565b6000611fa382611947565b611fad8185611ef5565b9350611fbd818560208601611963565b80840191505092915050565b7f2e6a736f6e000000000000000000000000000000000000000000000000000000600082015250565b6000611fff600583611ef5565b915061200a82611fc9565b600582019050919050565b60006120218285611f15565b915061202d8284611f98565b915061203882611ff2565b91508190509392505050565b7f4f776e61626c653a206e6577206f776e657220697320746865207a65726f206160008201527f6464726573730000000000000000000000000000000000000000000000000000602082015250565b60006120a0602683611952565b91506120ab82612044565b604082019050919050565b600060208201905081810360008301526120cf81612093565b9050919050565b7f4f776e61626c653a2063616c6c6572206973206e6f7420746865206f776e6572600082015250565b600061210c602083611952565b9150612117826120d6565b602082019050919050565b6000602082019050818103600083015261213b816120ff565b9050919050565b600081519050919050565b600082825260208201905092915050565b600061216982612142565b612173818561214d565b9350612183818560208601611963565b61218c8161198d565b840191505092915050565b60006080820190506121ac6000830187611a8e565b6121b96020830186611a8e565b6121c66040830185611b24565b81810360608301526121d8818461215e565b905095945050505050565b6000815190506121f2816118b8565b92915050565b60006020828403121561220e5761220d611882565b5b600061221c848285016121e3565b91505092915050565b6000612230826119f9565b91507fffffffffffffffffffffffffffffffffffffffffffffffffffffffffffffffff820361226257612261611e92565b5b600182019050919050565b7f4e487b7100000000000000000000000000000000000000000000000000000000600052601260045260246000fd5b60006122a7826119f9565b91506122b2836119f9565b9250826122c2576122c161226d565b5b828204905092915050565b60006122d8826119f9565b91506122e3836119f9565b92508282039050818111156122fb576122fa611e92565b5b92915050565b600061230c826119f9565b9150612317836119f9565b9250826123275761232661226d565b5b828206905092915050565b7f4e487b7100000000000000000000000000000000000000000000000000000000600052603260045260246000fdfea264697066735822122043b0f72f07f94461929e7c23fa273b6d30435f8e8b7d875a187d12588ae40ae064736f6c63430008110033",
  "devdoc": {
    "kind": "dev",
    "methods": {
      "approve(address,uint256)": {
        "details": "Gives permission to `to` to transfer `tokenId` token to another account. The approval is cleared when the token is transferred. Only a single account can be approved at a time, so approving the zero address clears previous approvals. Requirements: - The caller must own the token or be an approved operator. - `tokenId` must exist. Emits an {Approval} event."
      },
      "balanceOf(address)": {
        "details": "Returns the number of tokens in `owner`'s account."
      },
      "getApproved(uint256)": {
        "details": "Returns the account approved for `tokenId` token. Requirements: - `tokenId` must exist."
      },
      "isApprovedForAll(address,address)": {
        "details": "Returns if the `operator` is allowed to manage all of the assets of `owner`. See {setApprovalForAll}."
      },
      "name()": {
        "details": "Returns the token collection name."
      },
      "owner()": {
        "details": "Returns the address of the current owner."
      },
      "ownerOf(uint256)": {
        "details": "Returns the owner of the `tokenId` token. Requirements: - `tokenId` must exist."
      },
      "renounceOwnership()": {
        "details": "Leaves the contract without owner. It will not be possible to call `onlyOwner` functions anymore. Can only be called by the current owner. NOTE: Renouncing ownership will leave the contract without an owner, thereby removing any functionality that is only available to the owner."
      },
      "safeTransferFrom(address,address,uint256)": {
        "details": "Equivalent to `safeTransferFrom(from, to, tokenId, '')`."
      },
      "safeTransferFrom(address,address,uint256,bytes)": {
        "details": "Safely transfers `tokenId` token from `from` to `to`. Requirements: - `from` cannot be the zero address. - `to` cannot be the zero address. - `tokenId` token must exist and be owned by `from`. - If the caller is not `from`, it must be approved to move this token by either {approve} or {setApprovalForAll}. - If `to` refers to a smart contract, it must implement {IERC721Receiver-onERC721Received}, which is called upon a safe transfer. Emits a {Transfer} event."
      },
      "setApprovalForAll(address,bool)": {
        "details": "Approve or remove `operator` as an operator for the caller. Operators can call {transferFrom} or {safeTransferFrom} for any token owned by the caller. Requirements: - The `operator` cannot be the caller. Emits an {ApprovalForAll} event."
      },
      "supportsInterface(bytes4)": {
        "details": "Returns true if this contract implements the interface defined by `interfaceId`. See the corresponding [EIP section](https://eips.ethereum.org/EIPS/eip-165#how-interfaces-are-identified) to learn more about how these ids are created. This function call must use less than 30000 gas."
      },
      "symbol()": {
        "details": "Returns the token collection symbol."
      },
      "totalSupply()": {
        "details": "Returns the total number of tokens in existence. Burned tokens will reduce the count. To get the total number of tokens minted, please see {_totalMinted}."
      },
      "transferFrom(address,address,uint256)": {
        "details": "Transfers `tokenId` from `from` to `to`. Requirements: - `from` cannot be the zero address. - `to` cannot be the zero address. - `tokenId` token must be owned by `from`. - If the caller is not `from`, it must be approved to move this token by either {approve} or {setApprovalForAll}. Emits a {Transfer} event."
      },
      "transferOwnership(address)": {
        "details": "Transfers ownership of the contract to a new account (`newOwner`). Can only be called by the current owner."
      }
    },
    "version": 1
  },
  "userdoc": {
    "errors": {
      "ApprovalCallerNotOwnerNorApproved()": [
        {
          "notice": "The caller must own the token or be an approved operator."
        }
      ],
      "ApprovalQueryForNonexistentToken()": [
        {
          "notice": "The token does not exist."
        }
      ],
      "BalanceQueryForZeroAddress()": [
        {
          "notice": "Cannot query the balance for the zero address."
        }
      ],
      "MintERC2309QuantityExceedsLimit()": [
        {
          "notice": "The `quantity` minted with ERC2309 exceeds the safety limit."
        }
      ],
      "MintToZeroAddress()": [
        {
          "notice": "Cannot mint to the zero address."
        }
      ],
      "MintZeroQuantity()": [
        {
          "notice": "The quantity of tokens minted must be more than zero."
        }
      ],
      "OwnerQueryForNonexistentToken()": [
        {
          "notice": "The token does not exist."
        }
      ],
      "OwnershipNotInitializedForExtraData()": [
        {
          "notice": "The `extraData` cannot be set on an unintialized ownership slot."
        }
      ],
      "TransferCallerNotOwnerNorApproved()": [
        {
          "notice": "The caller must own the token or be an approved operator."
        }
      ],
      "TransferFromIncorrectOwner()": [
        {
          "notice": "The token must be owned by `from`."
        }
      ],
      "TransferToNonERC721ReceiverImplementer()": [
        {
          "notice": "Cannot safely transfer to a contract that does not implement the ERC721Receiver interface."
        }
      ],
      "TransferToZeroAddress()": [
        {
          "notice": "Cannot transfer to the zero address."
        }
      ],
      "URIQueryForNonexistentToken()": [
        {
          "notice": "The token does not exist."
        }
      ]
    },
    "kind": "user",
    "methods": {},
    "version": 1
  },
  "storageLayout": {
    "storage": [
      {
        "astId": 452,
        "contract": "contracts/NFTIsERC721A.sol:NFTIsERC721A",
        "label": "_currentIndex",
        "offset": 0,
        "slot": "0",
        "type": "t_uint256"
      },
      {
        "astId": 454,
        "contract": "contracts/NFTIsERC721A.sol:NFTIsERC721A",
        "label": "_burnCounter",
        "offset": 0,
        "slot": "1",
        "type": "t_uint256"
      },
      {
        "astId": 456,
        "contract": "contracts/NFTIsERC721A.sol:NFTIsERC721A",
        "label": "_name",
        "offset": 0,
        "slot": "2",
        "type": "t_string_storage"
      },
      {
        "astId": 458,
        "contract": "contracts/NFTIsERC721A.sol:NFTIsERC721A",
        "label": "_symbol",
        "offset": 0,
        "slot": "3",
        "type": "t_string_storage"
      },
      {
        "astId": 462,
        "contract": "contracts/NFTIsERC721A.sol:NFTIsERC721A",
        "label": "_packedOwnerships",
        "offset": 0,
        "slot": "4",
        "type": "t_mapping(t_uint256,t_uint256)"
      },
      {
        "astId": 466,
        "contract": "contracts/NFTIsERC721A.sol:NFTIsERC721A",
        "label": "_packedAddressData",
        "offset": 0,
        "slot": "5",
        "type": "t_mapping(t_address,t_uint256)"
      },
      {
        "astId": 471,
        "contract": "contracts/NFTIsERC721A.sol:NFTIsERC721A",
        "label": "_tokenApprovals",
        "offset": 0,
        "slot": "6",
        "type": "t_mapping(t_uint256,t_struct(TokenApprovalRef)384_storage)"
      },
      {
        "astId": 477,
        "contract": "contracts/NFTIsERC721A.sol:NFTIsERC721A",
        "label": "_operatorApprovals",
        "offset": 0,
        "slot": "7",
        "type": "t_mapping(t_address,t_mapping(t_address,t_bool))"
      },
      {
        "astId": 7,
        "contract": "contracts/NFTIsERC721A.sol:NFTIsERC721A",
        "label": "_owner",
        "offset": 0,
        "slot": "8",
        "type": "t_address"
      },
      {
        "astId": 2206,
        "contract": "contracts/NFTIsERC721A.sol:NFTIsERC721A",
        "label": "baseURI",
        "offset": 0,
        "slot": "9",
        "type": "t_string_storage"
      }
    ],
    "types": {
      "t_address": {
        "encoding": "inplace",
        "label": "address",
        "numberOfBytes": "20"
      },
      "t_bool": {
        "encoding": "inplace",
        "label": "bool",
        "numberOfBytes": "1"
      },
      "t_mapping(t_address,t_bool)": {
        "encoding": "mapping",
        "key": "t_address",
        "label": "mapping(address => bool)",
        "numberOfBytes": "32",
        "value": "t_bool"
      },
      "t_mapping(t_address,t_mapping(t_address,t_bool))": {
        "encoding": "mapping",
        "key": "t_address",
        "label": "mapping(address => mapping(address => bool))",
        "numberOfBytes": "32",
        "value": "t_mapping(t_address,t_bool)"
      },
      "t_mapping(t_address,t_uint256)": {
        "encoding": "mapping",
        "key": "t_address",
        "label": "mapping(address => uint256)",
        "numberOfBytes": "32",
        "value": "t_uint256"
      },
      "t_mapping(t_uint256,t_struct(TokenApprovalRef)384_storage)": {
        "encoding": "mapping",
        "key": "t_uint256",
        "label": "mapping(uint256 => struct ERC721A.TokenApprovalRef)",
        "numberOfBytes": "32",
        "value": "t_struct(TokenApprovalRef)384_storage"
      },
      "t_mapping(t_uint256,t_uint256)": {
        "encoding": "mapping",
        "key": "t_uint256",
        "label": "mapping(uint256 => uint256)",
        "numberOfBytes": "32",
        "value": "t_uint256"
      },
      "t_string_storage": {
        "encoding": "bytes",
        "label": "string",
        "numberOfBytes": "32"
      },
      "t_struct(TokenApprovalRef)384_storage": {
        "encoding": "inplace",
        "label": "struct ERC721A.TokenApprovalRef",
        "members": [
          {
            "astId": 383,
            "contract": "contracts/NFTIsERC721A.sol:NFTIsERC721A",
            "label": "value",
            "offset": 0,
            "slot": "0",
            "type": "t_address"
          }
        ],
        "numberOfBytes": "32"
      },
      "t_uint256": {
        "encoding": "inplace",
        "label": "uint256",
        "numberOfBytes": "32"
      }
    }
  }
}