{
  "address": "0x09a9a302b652Ca39b21453D7551aC3EbD07fe895",
  "abi": [
    {
      "inputs": [
        {
          "internalType": "uint256",
          "name": "collection_size",
          "type": "uint256"
        }
      ],
      "stateMutability": "nonpayable",
      "type": "constructor"
    },
    {
      "inputs": [],
      "name": "ApprovalCallerNotOwnerNorApproved",
      "type": "error"
    },
    {
      "inputs": [],
      "name": "ApprovalQueryForNonexistentToken",
      "type": "error"
    },
    {
      "inputs": [],
      "name": "BalanceQueryForZeroAddress",
      "type": "error"
    },
    {
      "inputs": [],
      "name": "MintERC2309QuantityExceedsLimit",
      "type": "error"
    },
    {
      "inputs": [],
      "name": "MintToZeroAddress",
      "type": "error"
    },
    {
      "inputs": [],
      "name": "MintZeroQuantity",
      "type": "error"
    },
    {
      "inputs": [],
      "name": "NFT__ExceededSupply",
      "type": "error"
    },
    {
      "inputs": [],
      "name": "OwnerQueryForNonexistentToken",
      "type": "error"
    },
    {
      "inputs": [],
      "name": "OwnershipNotInitializedForExtraData",
      "type": "error"
    },
    {
      "inputs": [],
      "name": "TransferCallerNotOwnerNorApproved",
      "type": "error"
    },
    {
      "inputs": [],
      "name": "TransferFromIncorrectOwner",
      "type": "error"
    },
    {
      "inputs": [],
      "name": "TransferToNonERC721ReceiverImplementer",
      "type": "error"
    },
    {
      "inputs": [],
      "name": "TransferToZeroAddress",
      "type": "error"
    },
    {
      "inputs": [],
      "name": "URIQueryForNonexistentToken",
      "type": "error"
    },
    {
      "anonymous": false,
      "inputs": [
        {
          "indexed": true,
          "internalType": "address",
          "name": "owner",
          "type": "address"
        },
        {
          "indexed": true,
          "internalType": "address",
          "name": "approved",
          "type": "address"
        },
        {
          "indexed": true,
          "internalType": "uint256",
          "name": "tokenId",
          "type": "uint256"
        }
      ],
      "name": "Approval",
      "type": "event"
    },
    {
      "anonymous": false,
      "inputs": [
        {
          "indexed": true,
          "internalType": "address",
          "name": "owner",
          "type": "address"
        },
        {
          "indexed": true,
          "internalType": "address",
          "name": "operator",
          "type": "address"
        },
        {
          "indexed": false,
          "internalType": "bool",
          "name": "approved",
          "type": "bool"
        }
      ],
      "name": "ApprovalForAll",
      "type": "event"
    },
    {
      "anonymous": false,
      "inputs": [
        {
          "indexed": true,
          "internalType": "uint256",
          "name": "fromTokenId",
          "type": "uint256"
        },
        {
          "indexed": false,
          "internalType": "uint256",
          "name": "toTokenId",
          "type": "uint256"
        },
        {
          "indexed": true,
          "internalType": "address",
          "name": "from",
          "type": "address"
        },
        {
          "indexed": true,
          "internalType": "address",
          "name": "to",
          "type": "address"
        }
      ],
      "name": "ConsecutiveTransfer",
      "type": "event"
    },
    {
      "anonymous": false,
      "inputs": [
        {
          "indexed": true,
          "internalType": "address",
          "name": "previousOwner",
          "type": "address"
        },
        {
          "indexed": true,
          "internalType": "address",
          "name": "newOwner",
          "type": "address"
        }
      ],
      "name": "OwnershipTransferred",
      "type": "event"
    },
    {
      "anonymous": false,
      "inputs": [
        {
          "indexed": true,
          "internalType": "address",
          "name": "from",
          "type": "address"
        },
        {
          "indexed": true,
          "internalType": "address",
          "name": "to",
          "type": "address"
        },
        {
          "indexed": true,
          "internalType": "uint256",
          "name": "tokenId",
          "type": "uint256"
        }
      ],
      "name": "Transfer",
      "type": "event"
    },
    {
      "inputs": [
        {
          "internalType": "address",
          "name": "to",
          "type": "address"
        },
        {
          "internalType": "uint256",
          "name": "tokenId",
          "type": "uint256"
        }
      ],
      "name": "approve",
      "outputs": [],
      "stateMutability": "payable",
      "type": "function"
    },
    {
      "inputs": [
        {
          "internalType": "address",
          "name": "owner",
          "type": "address"
        }
      ],
      "name": "balanceOf",
      "outputs": [
        {
          "internalType": "uint256",
          "name": "",
          "type": "uint256"
        }
      ],
      "stateMutability": "view",
      "type": "function"
    },
    {
      "inputs": [
        {
          "internalType": "uint256",
          "name": "tokenId",
          "type": "uint256"
        }
      ],
      "name": "getApproved",
      "outputs": [
        {
          "internalType": "address",
          "name": "",
          "type": "address"
        }
      ],
      "stateMutability": "view",
      "type": "function"
    },
    {
      "inputs": [
        {
          "internalType": "address",
          "name": "owner",
          "type": "address"
        },
        {
          "internalType": "address",
          "name": "operator",
          "type": "address"
        }
      ],
      "name": "isApprovedForAll",
      "outputs": [
        {
          "internalType": "bool",
          "name": "",
          "type": "bool"
        }
      ],
      "stateMutability": "view",
      "type": "function"
    },
    {
      "inputs": [
        {
          "internalType": "uint256",
          "name": "quantity",
          "type": "uint256"
        }
      ],
      "name": "mint",
      "outputs": [],
      "stateMutability": "payable",
      "type": "function"
    },
    {
      "inputs": [],
      "name": "name",
      "outputs": [
        {
          "internalType": "string",
          "name": "",
          "type": "string"
        }
      ],
      "stateMutability": "view",
      "type": "function"
    },
    {
      "inputs": [],
      "name": "owner",
      "outputs": [
        {
          "internalType": "address",
          "name": "",
          "type": "address"
        }
      ],
      "stateMutability": "view",
      "type": "function"
    },
    {
      "inputs": [
        {
          "internalType": "uint256",
          "name": "tokenId",
          "type": "uint256"
        }
      ],
      "name": "ownerOf",
      "outputs": [
        {
          "internalType": "address",
          "name": "",
          "type": "address"
        }
      ],
      "stateMutability": "view",
      "type": "function"
    },
    {
      "inputs": [],
      "name": "renounceOwnership",
      "outputs": [],
      "stateMutability": "nonpayable",
      "type": "function"
    },
    {
      "inputs": [
        {
          "internalType": "address",
          "name": "from",
          "type": "address"
        },
        {
          "internalType": "address",
          "name": "to",
          "type": "address"
        },
        {
          "internalType": "uint256",
          "name": "tokenId",
          "type": "uint256"
        }
      ],
      "name": "safeTransferFrom",
      "outputs": [],
      "stateMutability": "payable",
      "type": "function"
    },
    {
      "inputs": [
        {
          "internalType": "address",
          "name": "from",
          "type": "address"
        },
        {
          "internalType": "address",
          "name": "to",
          "type": "address"
        },
        {
          "internalType": "uint256",
          "name": "tokenId",
          "type": "uint256"
        },
        {
          "internalType": "bytes",
          "name": "_data",
          "type": "bytes"
        }
      ],
      "name": "safeTransferFrom",
      "outputs": [],
      "stateMutability": "payable",
      "type": "function"
    },
    {
      "inputs": [
        {
          "internalType": "address",
          "name": "operator",
          "type": "address"
        },
        {
          "internalType": "bool",
          "name": "approved",
          "type": "bool"
        }
      ],
      "name": "setApprovalForAll",
      "outputs": [],
      "stateMutability": "nonpayable",
      "type": "function"
    },
    {
      "inputs": [
        {
          "internalType": "bytes4",
          "name": "interfaceId",
          "type": "bytes4"
        }
      ],
      "name": "supportsInterface",
      "outputs": [
        {
          "internalType": "bool",
          "name": "",
          "type": "bool"
        }
      ],
      "stateMutability": "view",
      "type": "function"
    },
    {
      "inputs": [],
      "name": "symbol",
      "outputs": [
        {
          "internalType": "string",
          "name": "",
          "type": "string"
        }
      ],
      "stateMutability": "view",
      "type": "function"
    },
    {
      "inputs": [
        {
          "internalType": "uint256",
          "name": "tokenId",
          "type": "uint256"
        }
      ],
      "name": "tokenURI",
      "outputs": [
        {
          "internalType": "string",
          "name": "",
          "type": "string"
        }
      ],
      "stateMutability": "view",
      "type": "function"
    },
    {
      "inputs": [],
      "name": "totalSupply",
      "outputs": [
        {
          "internalType": "uint256",
          "name": "",
          "type": "uint256"
        }
      ],
      "stateMutability": "view",
      "type": "function"
    },
    {
      "inputs": [
        {
          "internalType": "address",
          "name": "from",
          "type": "address"
        },
        {
          "internalType": "address",
          "name": "to",
          "type": "address"
        },
        {
          "internalType": "uint256",
          "name": "tokenId",
          "type": "uint256"
        }
      ],
      "name": "transferFrom",
      "outputs": [],
      "stateMutability": "payable",
      "type": "function"
    },
    {
      "inputs": [
        {
          "internalType": "address",
          "name": "newOwner",
          "type": "address"
        }
      ],
      "name": "transferOwnership",
      "outputs": [],
      "stateMutability": "nonpayable",
      "type": "function"
    }
  ],
  "transactionHash": "0x17b421dad63404542cbfb7c5bd163a76cc29fd4c3ec9c4f2e9999c8e090898ce",
  "args": [
    1000
  ],
  "numDeployments": 2,
  "solcInputHash": "46de6146dc820016b7f6af5cbc986714",
  "bytecode": "0x60a06040523480156200001157600080fd5b506040516200253e3803806200253e833981810160405281019062000037919062000221565b6040518060400160405280600f81526020017f436f6c6c656374696f6e204e616d6500000000000000000000000000000000008152506040518060400160405280600681526020017f53796d626f6c00000000000000000000000000000000000000000000000000008152508160029081620000b49190620004c3565b508060039081620000c69190620004c3565b50620000d76200010e60201b60201c565b6000819055505050620000ff620000f36200011360201b60201c565b6200011b60201b60201c565b806080818152505050620005aa565b600090565b600033905090565b6000600860009054906101000a900473ffffffffffffffffffffffffffffffffffffffff16905081600860006101000a81548173ffffffffffffffffffffffffffffffffffffffff021916908373ffffffffffffffffffffffffffffffffffffffff1602179055508173ffffffffffffffffffffffffffffffffffffffff168173ffffffffffffffffffffffffffffffffffffffff167f8be0079c531659141344cd1fd0a4f28419497f9722a3daafe3b4186f6b6457e060405160405180910390a35050565b600080fd5b6000819050919050565b620001fb81620001e6565b81146200020757600080fd5b50565b6000815190506200021b81620001f0565b92915050565b6000602082840312156200023a5762000239620001e1565b5b60006200024a848285016200020a565b91505092915050565b600081519050919050565b7f4e487b7100000000000000000000000000000000000000000000000000000000600052604160045260246000fd5b7f4e487b7100000000000000000000000000000000000000000000000000000000600052602260045260246000fd5b60006002820490506001821680620002d557607f821691505b602082108103620002eb57620002ea6200028d565b5b50919050565b60008190508160005260206000209050919050565b60006020601f8301049050919050565b600082821b905092915050565b600060088302620003557fffffffffffffffffffffffffffffffffffffffffffffffffffffffffffffffff8262000316565b62000361868362000316565b95508019841693508086168417925050509392505050565b6000819050919050565b6000620003a46200039e6200039884620001e6565b62000379565b620001e6565b9050919050565b6000819050919050565b620003c08362000383565b620003d8620003cf82620003ab565b84845462000323565b825550505050565b600090565b620003ef620003e0565b620003fc818484620003b5565b505050565b5b81811015620004245762000418600082620003e5565b60018101905062000402565b5050565b601f82111562000473576200043d81620002f1565b620004488462000306565b8101602085101562000458578190505b62000470620004678562000306565b83018262000401565b50505b505050565b600082821c905092915050565b6000620004986000198460080262000478565b1980831691505092915050565b6000620004b3838362000485565b9150826002028217905092915050565b620004ce8262000253565b67ffffffffffffffff811115620004ea57620004e96200025e565b5b620004f68254620002bc565b6200050382828562000428565b600060209050601f8311600181146200053b576000841562000526578287015190505b620005328582620004a5565b865550620005a2565b601f1984166200054b86620002f1565b60005b8281101562000575578489015182556001820191506020850194506020810190506200054e565b8683101562000595578489015162000591601f89168262000485565b8355505b6001600288020188555050505b505050505050565b608051611f78620005c66000396000610c010152611f786000f3fe6080604052600436106101095760003560e01c8063715018a611610095578063a22cb46511610064578063a22cb46514610335578063b88d4fde1461035e578063c87b56dd1461037a578063e985e9c5146103b7578063f2fde38b146103f457610109565b8063715018a6146102ac5780638da5cb5b146102c357806395d89b41146102ee578063a0712d681461031957610109565b806318160ddd116100dc57806318160ddd146101cf57806323b872dd146101fa57806342842e0e146102165780636352211e1461023257806370a082311461026f57610109565b806301ffc9a71461010e57806306fdde031461014b578063081812fc14610176578063095ea7b3146101b3575b600080fd5b34801561011a57600080fd5b50610135600480360381019061013091906116f0565b61041d565b6040516101429190611738565b60405180910390f35b34801561015757600080fd5b506101606104af565b60405161016d91906117e3565b60405180910390f35b34801561018257600080fd5b5061019d6004803603810190610198919061183b565b610541565b6040516101aa91906118a9565b60405180910390f35b6101cd60048036038101906101c891906118f0565b6105c0565b005b3480156101db57600080fd5b506101e4610704565b6040516101f1919061193f565b60405180910390f35b610214600480360381019061020f919061195a565b61071b565b005b610230600480360381019061022b919061195a565b610a3d565b005b34801561023e57600080fd5b506102596004803603810190610254919061183b565b610a5d565b60405161026691906118a9565b60405180910390f35b34801561027b57600080fd5b50610296600480360381019061029191906119ad565b610a6f565b6040516102a3919061193f565b60405180910390f35b3480156102b857600080fd5b506102c1610b27565b005b3480156102cf57600080fd5b506102d8610b3b565b6040516102e591906118a9565b60405180910390f35b3480156102fa57600080fd5b50610303610b65565b60405161031091906117e3565b60405180910390f35b610333600480360381019061032e919061183b565b610bf7565b005b34801561034157600080fd5b5061035c60048036038101906103579190611a06565b610c78565b005b61037860048036038101906103739190611b7b565b610d83565b005b34801561038657600080fd5b506103a1600480360381019061039c919061183b565b610df6565b6040516103ae91906117e3565b60405180910390f35b3480156103c357600080fd5b506103de60048036038101906103d99190611bfe565b610e94565b6040516103eb9190611738565b60405180910390f35b34801561040057600080fd5b5061041b600480360381019061041691906119ad565b610f28565b005b60006301ffc9a760e01b827bffffffffffffffffffffffffffffffffffffffffffffffffffffffff1916148061047857506380ac58cd60e01b827bffffffffffffffffffffffffffffffffffffffffffffffffffffffff1916145b806104a85750635b5e139f60e01b827bffffffffffffffffffffffffffffffffffffffffffffffffffffffff1916145b9050919050565b6060600280546104be90611c6d565b80601f01602080910402602001604051908101604052809291908181526020018280546104ea90611c6d565b80156105375780601f1061050c57610100808354040283529160200191610537565b820191906000526020600020905b81548152906001019060200180831161051a57829003601f168201915b5050505050905090565b600061054c82610fab565b610582576040517fcf4700e400000000000000000000000000000000000000000000000000000000815260040160405180910390fd5b6006600083815260200190815260200160002060000160009054906101000a900473ffffffffffffffffffffffffffffffffffffffff169050919050565b60006105cb82610a5d565b90508073ffffffffffffffffffffffffffffffffffffffff166105ec61100a565b73ffffffffffffffffffffffffffffffffffffffff161461064f576106188161061361100a565b610e94565b61064e576040517fcfb3b94200000000000000000000000000000000000000000000000000000000815260040160405180910390fd5b5b826006600084815260200190815260200160002060000160006101000a81548173ffffffffffffffffffffffffffffffffffffffff021916908373ffffffffffffffffffffffffffffffffffffffff160217905550818373ffffffffffffffffffffffffffffffffffffffff168273ffffffffffffffffffffffffffffffffffffffff167f8c5be1e5ebec7d5bd14f71427d1e84f3dd0314c0f7b2291e5b200ac8c7c3b92560405160405180910390a4505050565b600061070e611012565b6001546000540303905090565b600061072682611017565b90508373ffffffffffffffffffffffffffffffffffffffff168173ffffffffffffffffffffffffffffffffffffffff161461078d576040517fa114810000000000000000000000000000000000000000000000000000000000815260040160405180910390fd5b600080610799846110e3565b915091506107af81876107aa61100a565b61110a565b6107fb576107c4866107bf61100a565b610e94565b6107fa576040517f59c896be00000000000000000000000000000000000000000000000000000000815260040160405180910390fd5b5b600073ffffffffffffffffffffffffffffffffffffffff168573ffffffffffffffffffffffffffffffffffffffff1603610861576040517fea553b3400000000000000000000000000000000000000000000000000000000815260040160405180910390fd5b61086e868686600161114e565b801561087957600082555b600560008773ffffffffffffffffffffffffffffffffffffffff1673ffffffffffffffffffffffffffffffffffffffff168152602001908152602001600020600081546001900391905081905550600560008673ffffffffffffffffffffffffffffffffffffffff1673ffffffffffffffffffffffffffffffffffffffff168152602001908152602001600020600081546001019190508190555061094785610923888887611154565b7c02000000000000000000000000000000000000000000000000000000001761117c565b600460008681526020019081526020016000208190555060007c02000000000000000000000000000000000000000000000000000000008416036109cd57600060018501905060006004600083815260200190815260200160002054036109cb5760005481146109ca578360046000838152602001908152602001600020819055505b5b505b838573ffffffffffffffffffffffffffffffffffffffff168773ffffffffffffffffffffffffffffffffffffffff167fddf252ad1be2c89b69c2b068fc378daa952ba7f163c4a11628f55a4df523b3ef60405160405180910390a4610a3586868660016111a7565b505050505050565b610a5883838360405180602001604052806000815250610d83565b505050565b6000610a6882611017565b9050919050565b60008073ffffffffffffffffffffffffffffffffffffffff168273ffffffffffffffffffffffffffffffffffffffff1603610ad6576040517f8f4eb60400000000000000000000000000000000000000000000000000000000815260040160405180910390fd5b67ffffffffffffffff600560008473ffffffffffffffffffffffffffffffffffffffff1673ffffffffffffffffffffffffffffffffffffffff16815260200190815260200160002054169050919050565b610b2f6111ad565b610b39600061122b565b565b6000600860009054906101000a900473ffffffffffffffffffffffffffffffffffffffff16905090565b606060038054610b7490611c6d565b80601f0160208091040260200160405190810160405280929190818152602001828054610ba090611c6d565b8015610bed5780601f10610bc257610100808354040283529160200191610bed565b820191906000526020600020905b815481529060010190602001808311610bd057829003601f168201915b5050505050905090565b610bff6111ad565b7f000000000000000000000000000000000000000000000000000000000000000081610c29610704565b610c339190611ccd565b1115610c6b576040517f6481299e00000000000000000000000000000000000000000000000000000000815260040160405180910390fd5b610c7533826112f1565b50565b8060076000610c8561100a565b73ffffffffffffffffffffffffffffffffffffffff1673ffffffffffffffffffffffffffffffffffffffff16815260200190815260200160002060008473ffffffffffffffffffffffffffffffffffffffff1673ffffffffffffffffffffffffffffffffffffffff16815260200190815260200160002060006101000a81548160ff0219169083151502179055508173ffffffffffffffffffffffffffffffffffffffff16610d3261100a565b73ffffffffffffffffffffffffffffffffffffffff167f17307eab39ab6107e8899845ad3d59bd9653f200f220920489ca2b5937696c3183604051610d779190611738565b60405180910390a35050565b610d8e84848461071b565b60008373ffffffffffffffffffffffffffffffffffffffff163b14610df057610db9848484846114ac565b610def576040517fd1a57ed600000000000000000000000000000000000000000000000000000000815260040160405180910390fd5b5b50505050565b6060610e0182610fab565b610e37576040517fa14c4b5000000000000000000000000000000000000000000000000000000000815260040160405180910390fd5b6000610e416115fc565b90506000815103610e615760405180602001604052806000815250610e8c565b80610e6b84611613565b604051602001610e7c929190611d3d565b6040516020818303038152906040525b915050919050565b6000600760008473ffffffffffffffffffffffffffffffffffffffff1673ffffffffffffffffffffffffffffffffffffffff16815260200190815260200160002060008373ffffffffffffffffffffffffffffffffffffffff1673ffffffffffffffffffffffffffffffffffffffff16815260200190815260200160002060009054906101000a900460ff16905092915050565b610f306111ad565b600073ffffffffffffffffffffffffffffffffffffffff168173ffffffffffffffffffffffffffffffffffffffff1603610f9f576040517f08c379a0000000000000000000000000000000000000000000000000000000008152600401610f9690611dd3565b60405180910390fd5b610fa88161122b565b50565b600081610fb6611012565b11158015610fc5575060005482105b8015611003575060007c0100000000000000000000000000000000000000000000000000000000600460008581526020019081526020016000205416145b9050919050565b600033905090565b600090565b60008082905080611026611012565b116110ac576000548110156110ab5760006004600083815260200190815260200160002054905060007c01000000000000000000000000000000000000000000000000000000008216036110a9575b6000810361109f576004600083600190039350838152602001908152602001600020549050611075565b80925050506110de565b505b5b6040517fdf2d9b4200000000000000000000000000000000000000000000000000000000815260040160405180910390fd5b919050565b60008060006006600085815260200190815260200160002090508092508254915050915091565b600073ffffffffffffffffffffffffffffffffffffffff8316925073ffffffffffffffffffffffffffffffffffffffff821691508382148383141790509392505050565b50505050565b60008060e883901c905060e861116b868684611663565b62ffffff16901b9150509392505050565b600073ffffffffffffffffffffffffffffffffffffffff83169250814260a01b178317905092915050565b50505050565b6111b561166c565b73ffffffffffffffffffffffffffffffffffffffff166111d3610b3b565b73ffffffffffffffffffffffffffffffffffffffff1614611229576040517f08c379a000000000000000000000000000000000000000000000000000000000815260040161122090611e3f565b60405180910390fd5b565b6000600860009054906101000a900473ffffffffffffffffffffffffffffffffffffffff16905081600860006101000a81548173ffffffffffffffffffffffffffffffffffffffff021916908373ffffffffffffffffffffffffffffffffffffffff1602179055508173ffffffffffffffffffffffffffffffffffffffff168173ffffffffffffffffffffffffffffffffffffffff167f8be0079c531659141344cd1fd0a4f28419497f9722a3daafe3b4186f6b6457e060405160405180910390a35050565b60008054905060008203611331576040517fb562e8dd00000000000000000000000000000000000000000000000000000000815260040160405180910390fd5b61133e600084838561114e565b600160406001901b178202600560008573ffffffffffffffffffffffffffffffffffffffff1673ffffffffffffffffffffffffffffffffffffffff168152602001908152602001600020600082825401925050819055506113b5836113a66000866000611154565b6113af85611674565b1761117c565b6004600083815260200190815260200160002081905550600080838301905073ffffffffffffffffffffffffffffffffffffffff85169150828260007fddf252ad1be2c89b69c2b068fc378daa952ba7f163c4a11628f55a4df523b3ef600080a4600183015b81811461145657808360007fddf252ad1be2c89b69c2b068fc378daa952ba7f163c4a11628f55a4df523b3ef600080a460018101905061141b565b5060008203611491576040517f2e07630000000000000000000000000000000000000000000000000000000000815260040160405180910390fd5b8060008190555050506114a760008483856111a7565b505050565b60008373ffffffffffffffffffffffffffffffffffffffff1663150b7a026114d261100a565b8786866040518563ffffffff1660e01b81526004016114f49493929190611eb4565b6020604051808303816000875af192505050801561153057506040513d601f19601f8201168201806040525081019061152d9190611f15565b60015b6115a9573d8060008114611560576040519150601f19603f3d011682016040523d82523d6000602084013e611565565b606091505b5060008151036115a1576040517fd1a57ed600000000000000000000000000000000000000000000000000000000815260040160405180910390fd5b805181602001fd5b63150b7a0260e01b7bffffffffffffffffffffffffffffffffffffffffffffffffffffffff1916817bffffffffffffffffffffffffffffffffffffffffffffffffffffffff191614915050949350505050565b606060405180602001604052806000815250905090565b606060a060405101806040526020810391506000825281835b60011561164e57600184039350600a81066030018453600a810490508061162c575b50828103602084039350808452505050919050565b60009392505050565b600033905090565b60006001821460e11b9050919050565b6000604051905090565b600080fd5b600080fd5b60007fffffffff0000000000000000000000000000000000000000000000000000000082169050919050565b6116cd81611698565b81146116d857600080fd5b50565b6000813590506116ea816116c4565b92915050565b6000602082840312156117065761170561168e565b5b6000611714848285016116db565b91505092915050565b60008115159050919050565b6117328161171d565b82525050565b600060208201905061174d6000830184611729565b92915050565b600081519050919050565b600082825260208201905092915050565b60005b8381101561178d578082015181840152602081019050611772565b60008484015250505050565b6000601f19601f8301169050919050565b60006117b582611753565b6117bf818561175e565b93506117cf81856020860161176f565b6117d881611799565b840191505092915050565b600060208201905081810360008301526117fd81846117aa565b905092915050565b6000819050919050565b61181881611805565b811461182357600080fd5b50565b6000813590506118358161180f565b92915050565b6000602082840312156118515761185061168e565b5b600061185f84828501611826565b91505092915050565b600073ffffffffffffffffffffffffffffffffffffffff82169050919050565b600061189382611868565b9050919050565b6118a381611888565b82525050565b60006020820190506118be600083018461189a565b92915050565b6118cd81611888565b81146118d857600080fd5b50565b6000813590506118ea816118c4565b92915050565b600080604083850312156119075761190661168e565b5b6000611915858286016118db565b925050602061192685828601611826565b9150509250929050565b61193981611805565b82525050565b60006020820190506119546000830184611930565b92915050565b6000806000606084860312156119735761197261168e565b5b6000611981868287016118db565b9350506020611992868287016118db565b92505060406119a386828701611826565b9150509250925092565b6000602082840312156119c3576119c261168e565b5b60006119d1848285016118db565b91505092915050565b6119e38161171d565b81146119ee57600080fd5b50565b600081359050611a00816119da565b92915050565b60008060408385031215611a1d57611a1c61168e565b5b6000611a2b858286016118db565b9250506020611a3c858286016119f1565b9150509250929050565b600080fd5b600080fd5b7f4e487b7100000000000000000000000000000000000000000000000000000000600052604160045260246000fd5b611a8882611799565b810181811067ffffffffffffffff82111715611aa757611aa6611a50565b5b80604052505050565b6000611aba611684565b9050611ac68282611a7f565b919050565b600067ffffffffffffffff821115611ae657611ae5611a50565b5b611aef82611799565b9050602081019050919050565b82818337600083830152505050565b6000611b1e611b1984611acb565b611ab0565b905082815260208101848484011115611b3a57611b39611a4b565b5b611b45848285611afc565b509392505050565b600082601f830112611b6257611b61611a46565b5b8135611b72848260208601611b0b565b91505092915050565b60008060008060808587031215611b9557611b9461168e565b5b6000611ba3878288016118db565b9450506020611bb4878288016118db565b9350506040611bc587828801611826565b925050606085013567ffffffffffffffff811115611be657611be5611693565b5b611bf287828801611b4d565b91505092959194509250565b60008060408385031215611c1557611c1461168e565b5b6000611c23858286016118db565b9250506020611c34858286016118db565b9150509250929050565b7f4e487b7100000000000000000000000000000000000000000000000000000000600052602260045260246000fd5b60006002820490506001821680611c8557607f821691505b602082108103611c9857611c97611c3e565b5b50919050565b7f4e487b7100000000000000000000000000000000000000000000000000000000600052601160045260246000fd5b6000611cd882611805565b9150611ce383611805565b9250828201905080821115611cfb57611cfa611c9e565b5b92915050565b600081905092915050565b6000611d1782611753565b611d218185611d01565b9350611d3181856020860161176f565b80840191505092915050565b6000611d498285611d0c565b9150611d558284611d0c565b91508190509392505050565b7f4f776e61626c653a206e6577206f776e657220697320746865207a65726f206160008201527f6464726573730000000000000000000000000000000000000000000000000000602082015250565b6000611dbd60268361175e565b9150611dc882611d61565b604082019050919050565b60006020820190508181036000830152611dec81611db0565b9050919050565b7f4f776e61626c653a2063616c6c6572206973206e6f7420746865206f776e6572600082015250565b6000611e2960208361175e565b9150611e3482611df3565b602082019050919050565b60006020820190508181036000830152611e5881611e1c565b9050919050565b600081519050919050565b600082825260208201905092915050565b6000611e8682611e5f565b611e908185611e6a565b9350611ea081856020860161176f565b611ea981611799565b840191505092915050565b6000608082019050611ec9600083018761189a565b611ed6602083018661189a565b611ee36040830185611930565b8181036060830152611ef58184611e7b565b905095945050505050565b600081519050611f0f816116c4565b92915050565b600060208284031215611f2b57611f2a61168e565b5b6000611f3984828501611f00565b9150509291505056fea26469706673582212206712bd272a37e16d7fc21bfb411f13eba3d8dcbe628153e31a35d47a1a39d80864736f6c63430008110033",
  "devdoc": {
    "kind": "dev",
    "methods": {
      "approve(address,uint256)": {
        "details": "Gives permission to `to` to transfer `tokenId` token to another account. The approval is cleared when the token is transferred. Only a single account can be approved at a time, so approving the zero address clears previous approvals. Requirements: - The caller must own the token or be an approved operator. - `tokenId` must exist. Emits an {Approval} event."
      },
      "balanceOf(address)": {
        "details": "Returns the number of tokens in `owner`'s account."
      },
      "getApproved(uint256)": {
        "details": "Returns the account approved for `tokenId` token. Requirements: - `tokenId` must exist."
      },
      "isApprovedForAll(address,address)": {
        "details": "Returns if the `operator` is allowed to manage all of the assets of `owner`. See {setApprovalForAll}."
      },
      "name()": {
        "details": "Returns the token collection name."
      },
      "owner()": {
        "details": "Returns the address of the current owner."
      },
      "ownerOf(uint256)": {
        "details": "Returns the owner of the `tokenId` token. Requirements: - `tokenId` must exist."
      },
      "renounceOwnership()": {
        "details": "Leaves the contract without owner. It will not be possible to call `onlyOwner` functions anymore. Can only be called by the current owner. NOTE: Renouncing ownership will leave the contract without an owner, thereby removing any functionality that is only available to the owner."
      },
      "safeTransferFrom(address,address,uint256)": {
        "details": "Equivalent to `safeTransferFrom(from, to, tokenId, '')`."
      },
      "safeTransferFrom(address,address,uint256,bytes)": {
        "details": "Safely transfers `tokenId` token from `from` to `to`. Requirements: - `from` cannot be the zero address. - `to` cannot be the zero address. - `tokenId` token must exist and be owned by `from`. - If the caller is not `from`, it must be approved to move this token by either {approve} or {setApprovalForAll}. - If `to` refers to a smart contract, it must implement {IERC721Receiver-onERC721Received}, which is called upon a safe transfer. Emits a {Transfer} event."
      },
      "setApprovalForAll(address,bool)": {
        "details": "Approve or remove `operator` as an operator for the caller. Operators can call {transferFrom} or {safeTransferFrom} for any token owned by the caller. Requirements: - The `operator` cannot be the caller. Emits an {ApprovalForAll} event."
      },
      "supportsInterface(bytes4)": {
        "details": "Returns true if this contract implements the interface defined by `interfaceId`. See the corresponding [EIP section](https://eips.ethereum.org/EIPS/eip-165#how-interfaces-are-identified) to learn more about how these ids are created. This function call must use less than 30000 gas."
      },
      "symbol()": {
        "details": "Returns the token collection symbol."
      },
      "tokenURI(uint256)": {
        "details": "Returns the Uniform Resource Identifier (URI) for `tokenId` token."
      },
      "totalSupply()": {
        "details": "Returns the total number of tokens in existence. Burned tokens will reduce the count. To get the total number of tokens minted, please see {_totalMinted}."
      },
      "transferFrom(address,address,uint256)": {
        "details": "Transfers `tokenId` from `from` to `to`. Requirements: - `from` cannot be the zero address. - `to` cannot be the zero address. - `tokenId` token must be owned by `from`. - If the caller is not `from`, it must be approved to move this token by either {approve} or {setApprovalForAll}. Emits a {Transfer} event."
      },
      "transferOwnership(address)": {
        "details": "Transfers ownership of the contract to a new account (`newOwner`). Can only be called by the current owner."
      }
    },
    "version": 1
  },
  "userdoc": {
    "errors": {
      "ApprovalCallerNotOwnerNorApproved()": [
        {
          "notice": "The caller must own the token or be an approved operator."
        }
      ],
      "ApprovalQueryForNonexistentToken()": [
        {
          "notice": "The token does not exist."
        }
      ],
      "BalanceQueryForZeroAddress()": [
        {
          "notice": "Cannot query the balance for the zero address."
        }
      ],
      "MintERC2309QuantityExceedsLimit()": [
        {
          "notice": "The `quantity` minted with ERC2309 exceeds the safety limit."
        }
      ],
      "MintToZeroAddress()": [
        {
          "notice": "Cannot mint to the zero address."
        }
      ],
      "MintZeroQuantity()": [
        {
          "notice": "The quantity of tokens minted must be more than zero."
        }
      ],
      "OwnerQueryForNonexistentToken()": [
        {
          "notice": "The token does not exist."
        }
      ],
      "OwnershipNotInitializedForExtraData()": [
        {
          "notice": "The `extraData` cannot be set on an unintialized ownership slot."
        }
      ],
      "TransferCallerNotOwnerNorApproved()": [
        {
          "notice": "The caller must own the token or be an approved operator."
        }
      ],
      "TransferFromIncorrectOwner()": [
        {
          "notice": "The token must be owned by `from`."
        }
      ],
      "TransferToNonERC721ReceiverImplementer()": [
        {
          "notice": "Cannot safely transfer to a contract that does not implement the ERC721Receiver interface."
        }
      ],
      "TransferToZeroAddress()": [
        {
          "notice": "Cannot transfer to the zero address."
        }
      ],
      "URIQueryForNonexistentToken()": [
        {
          "notice": "The token does not exist."
        }
      ]
    },
    "kind": "user",
    "methods": {},
    "version": 1
  },
  "storageLayout": {
    "storage": [
      {
        "astId": 226,
        "contract": "contracts/NFTIsERC721A.sol:NFTIsERC721A",
        "label": "_currentIndex",
        "offset": 0,
        "slot": "0",
        "type": "t_uint256"
      },
      {
        "astId": 228,
        "contract": "contracts/NFTIsERC721A.sol:NFTIsERC721A",
        "label": "_burnCounter",
        "offset": 0,
        "slot": "1",
        "type": "t_uint256"
      },
      {
        "astId": 230,
        "contract": "contracts/NFTIsERC721A.sol:NFTIsERC721A",
        "label": "_name",
        "offset": 0,
        "slot": "2",
        "type": "t_string_storage"
      },
      {
        "astId": 232,
        "contract": "contracts/NFTIsERC721A.sol:NFTIsERC721A",
        "label": "_symbol",
        "offset": 0,
        "slot": "3",
        "type": "t_string_storage"
      },
      {
        "astId": 236,
        "contract": "contracts/NFTIsERC721A.sol:NFTIsERC721A",
        "label": "_packedOwnerships",
        "offset": 0,
        "slot": "4",
        "type": "t_mapping(t_uint256,t_uint256)"
      },
      {
        "astId": 240,
        "contract": "contracts/NFTIsERC721A.sol:NFTIsERC721A",
        "label": "_packedAddressData",
        "offset": 0,
        "slot": "5",
        "type": "t_mapping(t_address,t_uint256)"
      },
      {
        "astId": 245,
        "contract": "contracts/NFTIsERC721A.sol:NFTIsERC721A",
        "label": "_tokenApprovals",
        "offset": 0,
        "slot": "6",
        "type": "t_mapping(t_uint256,t_struct(TokenApprovalRef)158_storage)"
      },
      {
        "astId": 251,
        "contract": "contracts/NFTIsERC721A.sol:NFTIsERC721A",
        "label": "_operatorApprovals",
        "offset": 0,
        "slot": "7",
        "type": "t_mapping(t_address,t_mapping(t_address,t_bool))"
      },
      {
        "astId": 7,
        "contract": "contracts/NFTIsERC721A.sol:NFTIsERC721A",
        "label": "_owner",
        "offset": 0,
        "slot": "8",
        "type": "t_address"
      }
    ],
    "types": {
      "t_address": {
        "encoding": "inplace",
        "label": "address",
        "numberOfBytes": "20"
      },
      "t_bool": {
        "encoding": "inplace",
        "label": "bool",
        "numberOfBytes": "1"
      },
      "t_mapping(t_address,t_bool)": {
        "encoding": "mapping",
        "key": "t_address",
        "label": "mapping(address => bool)",
        "numberOfBytes": "32",
        "value": "t_bool"
      },
      "t_mapping(t_address,t_mapping(t_address,t_bool))": {
        "encoding": "mapping",
        "key": "t_address",
        "label": "mapping(address => mapping(address => bool))",
        "numberOfBytes": "32",
        "value": "t_mapping(t_address,t_bool)"
      },
      "t_mapping(t_address,t_uint256)": {
        "encoding": "mapping",
        "key": "t_address",
        "label": "mapping(address => uint256)",
        "numberOfBytes": "32",
        "value": "t_uint256"
      },
      "t_mapping(t_uint256,t_struct(TokenApprovalRef)158_storage)": {
        "encoding": "mapping",
        "key": "t_uint256",
        "label": "mapping(uint256 => struct ERC721A.TokenApprovalRef)",
        "numberOfBytes": "32",
        "value": "t_struct(TokenApprovalRef)158_storage"
      },
      "t_mapping(t_uint256,t_uint256)": {
        "encoding": "mapping",
        "key": "t_uint256",
        "label": "mapping(uint256 => uint256)",
        "numberOfBytes": "32",
        "value": "t_uint256"
      },
      "t_string_storage": {
        "encoding": "bytes",
        "label": "string",
        "numberOfBytes": "32"
      },
      "t_struct(TokenApprovalRef)158_storage": {
        "encoding": "inplace",
        "label": "struct ERC721A.TokenApprovalRef",
        "members": [
          {
            "astId": 157,
            "contract": "contracts/NFTIsERC721A.sol:NFTIsERC721A",
            "label": "value",
            "offset": 0,
            "slot": "0",
            "type": "t_address"
          }
        ],
        "numberOfBytes": "32"
      },
      "t_uint256": {
        "encoding": "inplace",
        "label": "uint256",
        "numberOfBytes": "32"
      }
    }
  }
}